{
  "_format": "hh-sol-artifact-1",
  "contractName": "ICO",
  "sourceName": "contracts/ICO.sol",
  "abi": [
    {
      "inputs": [
        {
          "internalType": "uint256",
          "name": "_startTime",
          "type": "uint256"
        },
        {
          "internalType": "uint256",
          "name": "_endTime",
          "type": "uint256"
        }
      ],
      "stateMutability": "nonpayable",
      "type": "constructor"
    },
    {
      "anonymous": false,
      "inputs": [
        {
          "indexed": true,
          "internalType": "address",
          "name": "owner",
          "type": "address"
        },
        {
          "indexed": true,
          "internalType": "address",
          "name": "spender",
          "type": "address"
        },
        {
          "indexed": false,
          "internalType": "uint256",
          "name": "value",
          "type": "uint256"
        }
      ],
      "name": "Approval",
      "type": "event"
    },
    {
      "anonymous": false,
      "inputs": [
        {
          "indexed": true,
          "internalType": "address",
          "name": "investor",
          "type": "address"
        },
        {
          "indexed": false,
          "internalType": "uint256",
          "name": "amount",
          "type": "uint256"
        }
      ],
      "name": "Claim",
      "type": "event"
    },
    {
      "anonymous": false,
      "inputs": [
        {
          "indexed": true,
          "internalType": "address",
          "name": "investor",
          "type": "address"
        },
        {
          "indexed": false,
          "internalType": "uint256",
          "name": "amount",
          "type": "uint256"
        }
      ],
      "name": "Deposit",
      "type": "event"
    },
    {
      "anonymous": false,
      "inputs": [
        {
          "indexed": true,
          "internalType": "address",
          "name": "from",
          "type": "address"
        },
        {
          "indexed": true,
          "internalType": "address",
          "name": "to",
          "type": "address"
        },
        {
          "indexed": false,
          "internalType": "uint256",
          "name": "value",
          "type": "uint256"
        }
      ],
      "name": "Transfer",
      "type": "event"
    },
    {
      "anonymous": false,
      "inputs": [
        {
          "indexed": true,
          "internalType": "address",
          "name": "investor",
          "type": "address"
        },
        {
          "indexed": false,
          "internalType": "uint256",
          "name": "amount",
          "type": "uint256"
        }
      ],
      "name": "Withdraw",
      "type": "event"
    },
    {
      "inputs": [
        {
          "internalType": "address",
          "name": "owner",
          "type": "address"
        },
        {
          "internalType": "address",
          "name": "spender",
          "type": "address"
        }
      ],
      "name": "allowance",
      "outputs": [
        {
          "internalType": "uint256",
          "name": "",
          "type": "uint256"
        }
      ],
      "stateMutability": "view",
      "type": "function"
    },
    {
      "inputs": [
        {
          "internalType": "address",
          "name": "spender",
          "type": "address"
        },
        {
          "internalType": "uint256",
          "name": "amount",
          "type": "uint256"
        }
      ],
      "name": "approve",
      "outputs": [
        {
          "internalType": "bool",
          "name": "",
          "type": "bool"
        }
      ],
      "stateMutability": "nonpayable",
      "type": "function"
    },
    {
      "inputs": [
        {
          "internalType": "address",
          "name": "account",
          "type": "address"
        }
      ],
      "name": "balanceOf",
      "outputs": [
        {
          "internalType": "uint256",
          "name": "",
          "type": "uint256"
        }
      ],
      "stateMutability": "view",
      "type": "function"
    },
    {
      "inputs": [],
      "name": "claim",
      "outputs": [],
      "stateMutability": "nonpayable",
      "type": "function"
    },
    {
      "inputs": [],
      "name": "close",
      "outputs": [],
      "stateMutability": "nonpayable",
      "type": "function"
    },
    {
      "inputs": [],
      "name": "decimals",
      "outputs": [
        {
          "internalType": "uint8",
          "name": "",
          "type": "uint8"
        }
      ],
      "stateMutability": "view",
      "type": "function"
    },
    {
      "inputs": [
        {
          "internalType": "address",
          "name": "spender",
          "type": "address"
        },
        {
          "internalType": "uint256",
          "name": "subtractedValue",
          "type": "uint256"
        }
      ],
      "name": "decreaseAllowance",
      "outputs": [
        {
          "internalType": "bool",
          "name": "",
          "type": "bool"
        }
      ],
      "stateMutability": "nonpayable",
      "type": "function"
    },
    {
      "inputs": [],
      "name": "deposit",
      "outputs": [],
      "stateMutability": "payable",
      "type": "function"
    },
    {
      "inputs": [
        {
          "internalType": "address",
          "name": "",
          "type": "address"
        }
      ],
      "name": "deposits",
      "outputs": [
        {
          "internalType": "uint256",
          "name": "",
          "type": "uint256"
        }
      ],
      "stateMutability": "view",
      "type": "function"
    },
    {
      "inputs": [],
      "name": "endTime",
      "outputs": [
        {
          "internalType": "uint256",
          "name": "",
          "type": "uint256"
        }
      ],
      "stateMutability": "view",
      "type": "function"
    },
    {
      "inputs": [],
      "name": "getTotalDeposit",
      "outputs": [
        {
          "internalType": "uint256",
          "name": "",
          "type": "uint256"
        }
      ],
      "stateMutability": "view",
      "type": "function"
    },
    {
      "inputs": [],
      "name": "hardCap",
      "outputs": [
        {
          "internalType": "uint256",
          "name": "",
          "type": "uint256"
        }
      ],
      "stateMutability": "view",
      "type": "function"
    },
    {
      "inputs": [],
      "name": "icorate",
      "outputs": [
        {
          "internalType": "uint256",
          "name": "",
          "type": "uint256"
        }
      ],
      "stateMutability": "view",
      "type": "function"
    },
    {
      "inputs": [
        {
          "internalType": "address",
          "name": "spender",
          "type": "address"
        },
        {
          "internalType": "uint256",
          "name": "addedValue",
          "type": "uint256"
        }
      ],
      "name": "increaseAllowance",
      "outputs": [
        {
          "internalType": "bool",
          "name": "",
          "type": "bool"
        }
      ],
      "stateMutability": "nonpayable",
      "type": "function"
    },
    {
      "inputs": [],
      "name": "isClosed",
      "outputs": [
        {
          "internalType": "bool",
          "name": "",
          "type": "bool"
        }
      ],
      "stateMutability": "view",
      "type": "function"
    },
    {
      "inputs": [],
      "name": "maxPurchase",
      "outputs": [
        {
          "internalType": "uint256",
          "name": "",
          "type": "uint256"
        }
      ],
      "stateMutability": "view",
      "type": "function"
    },
    {
      "inputs": [],
      "name": "minPurchase",
      "outputs": [
        {
          "internalType": "uint256",
          "name": "",
          "type": "uint256"
        }
      ],
      "stateMutability": "view",
      "type": "function"
    },
    {
      "inputs": [],
      "name": "name",
      "outputs": [
        {
          "internalType": "string",
          "name": "",
          "type": "string"
        }
      ],
      "stateMutability": "view",
      "type": "function"
    },
    {
      "inputs": [],
      "name": "owner",
      "outputs": [
        {
          "internalType": "address",
          "name": "",
          "type": "address"
        }
      ],
      "stateMutability": "view",
      "type": "function"
    },
    {
      "inputs": [],
      "name": "softCap",
      "outputs": [
        {
          "internalType": "uint256",
          "name": "",
          "type": "uint256"
        }
      ],
      "stateMutability": "view",
      "type": "function"
    },
    {
      "inputs": [],
      "name": "startTime",
      "outputs": [
        {
          "internalType": "uint256",
          "name": "",
          "type": "uint256"
        }
      ],
      "stateMutability": "view",
      "type": "function"
    },
    {
      "inputs": [],
      "name": "symbol",
      "outputs": [
        {
          "internalType": "string",
          "name": "",
          "type": "string"
        }
      ],
      "stateMutability": "view",
      "type": "function"
    },
    {
      "inputs": [],
      "name": "totalDeposit",
      "outputs": [
        {
          "internalType": "uint256",
          "name": "",
          "type": "uint256"
        }
      ],
      "stateMutability": "view",
      "type": "function"
    },
    {
      "inputs": [],
      "name": "totalSupply",
      "outputs": [
        {
          "internalType": "uint256",
          "name": "",
          "type": "uint256"
        }
      ],
      "stateMutability": "view",
      "type": "function"
    },
    {
      "inputs": [],
      "name": "totalToken",
      "outputs": [
        {
          "internalType": "uint256",
          "name": "",
          "type": "uint256"
        }
      ],
      "stateMutability": "view",
      "type": "function"
    },
    {
      "inputs": [
        {
          "internalType": "address",
          "name": "to",
          "type": "address"
        },
        {
          "internalType": "uint256",
          "name": "amount",
          "type": "uint256"
        }
      ],
      "name": "transfer",
      "outputs": [
        {
          "internalType": "bool",
          "name": "",
          "type": "bool"
        }
      ],
      "stateMutability": "nonpayable",
      "type": "function"
    },
    {
      "inputs": [
        {
          "internalType": "address",
          "name": "from",
          "type": "address"
        },
        {
          "internalType": "address",
          "name": "to",
          "type": "address"
        },
        {
          "internalType": "uint256",
          "name": "amount",
          "type": "uint256"
        }
      ],
      "name": "transferFrom",
      "outputs": [
        {
          "internalType": "bool",
          "name": "",
          "type": "bool"
        }
      ],
      "stateMutability": "nonpayable",
      "type": "function"
    },
    {
      "inputs": [],
      "name": "withDraw",
      "outputs": [
        {
          "internalType": "bool",
          "name": "",
          "type": "bool"
        }
      ],
      "stateMutability": "view",
      "type": "function"
    },
    {
      "inputs": [],
      "name": "withdraw",
      "outputs": [],
      "stateMutability": "nonpayable",
      "type": "function"
    }
  ],
  "bytecode": "0x608060405269010f0cf064dd5920000060075567016345785d8a0000600a55670b1a2bc2ec500000600b55662386f26fc10000600c5566b1a2bc2ec50000600d556103e8600e553480156200005357600080fd5b5060405162002e7f38038062002e7f833981810160405281019062000079919062000398565b6040518060400160405280600381526020017f49434f00000000000000000000000000000000000000000000000000000000008152506040518060400160405280600381526020017f49434f00000000000000000000000000000000000000000000000000000000008152508160039081620000f691906200064f565b5080600490816200010891906200064f565b505050600160058190555033600660006101000a81548173ffffffffffffffffffffffffffffffffffffffff021916908373ffffffffffffffffffffffffffffffffffffffff16021790555081600881905550806009819055506000600f60016101000a81548160ff0219169083151502179055506000600f60006101000a81548160ff021916908315150217905550620001ce600660009054906101000a900473ffffffffffffffffffffffffffffffffffffffff16600754620001d660201b60201c565b505062000851565b600073ffffffffffffffffffffffffffffffffffffffff168273ffffffffffffffffffffffffffffffffffffffff160362000248576040517f08c379a00000000000000000000000000000000000000000000000000000000081526004016200023f9062000797565b60405180910390fd5b6200025c600083836200034e60201b60201c565b8060026000828254620002709190620007e8565b92505081905550806000808473ffffffffffffffffffffffffffffffffffffffff1673ffffffffffffffffffffffffffffffffffffffff1681526020019081526020016000206000828254620002c79190620007e8565b925050819055508173ffffffffffffffffffffffffffffffffffffffff16600073ffffffffffffffffffffffffffffffffffffffff167fddf252ad1be2c89b69c2b068fc378daa952ba7f163c4a11628f55a4df523b3ef836040516200032e919062000834565b60405180910390a36200034a600083836200035360201b60201c565b5050565b505050565b505050565b600080fd5b6000819050919050565b62000372816200035d565b81146200037e57600080fd5b50565b600081519050620003928162000367565b92915050565b60008060408385031215620003b257620003b162000358565b5b6000620003c28582860162000381565b9250506020620003d58582860162000381565b9150509250929050565b600081519050919050565b7f4e487b7100000000000000000000000000000000000000000000000000000000600052604160045260246000fd5b7f4e487b7100000000000000000000000000000000000000000000000000000000600052602260045260246000fd5b600060028204905060018216806200046157607f821691505b60208210810362000477576200047662000419565b5b50919050565b60008190508160005260206000209050919050565b60006020601f8301049050919050565b600082821b905092915050565b600060088302620004e17fffffffffffffffffffffffffffffffffffffffffffffffffffffffffffffffff82620004a2565b620004ed8683620004a2565b95508019841693508086168417925050509392505050565b6000819050919050565b6000620005306200052a62000524846200035d565b62000505565b6200035d565b9050919050565b6000819050919050565b6200054c836200050f565b620005646200055b8262000537565b848454620004af565b825550505050565b600090565b6200057b6200056c565b6200058881848462000541565b505050565b5b81811015620005b057620005a460008262000571565b6001810190506200058e565b5050565b601f821115620005ff57620005c9816200047d565b620005d48462000492565b81016020851015620005e4578190505b620005fc620005f38562000492565b8301826200058d565b50505b505050565b600082821c905092915050565b6000620006246000198460080262000604565b1980831691505092915050565b60006200063f838362000611565b9150826002028217905092915050565b6200065a82620003df565b67ffffffffffffffff811115620006765762000675620003ea565b5b62000682825462000448565b6200068f828285620005b4565b600060209050601f831160018114620006c75760008415620006b2578287015190505b620006be858262000631565b8655506200072e565b601f198416620006d7866200047d565b60005b828110156200070157848901518255600182019150602085019450602081019050620006da565b868310156200072157848901516200071d601f89168262000611565b8355505b6001600288020188555050505b505050505050565b600082825260208201905092915050565b7f45524332303a206d696e7420746f20746865207a65726f206164647265737300600082015250565b60006200077f601f8362000736565b91506200078c8262000747565b602082019050919050565b60006020820190508181036000830152620007b28162000770565b9050919050565b7f4e487b7100000000000000000000000000000000000000000000000000000000600052601160045260246000fd5b6000620007f5826200035d565b915062000802836200035d565b92508282019050808211156200081d576200081c620007b9565b5b92915050565b6200082e816200035d565b82525050565b60006020820190506200084b600083018462000823565b92915050565b61261e80620008616000396000f3fe6080604052600436106101c25760003560e01c806378e97925116100f7578063a9059cbb11610095578063dd62ed3e11610064578063dd62ed3e14610609578063f6153ccd14610646578063fb86a40414610671578063fc7e286d1461069c576101c2565b8063a9059cbb1461056c578063c022215c146105a9578063c2b6b58c146105d4578063d0e30db0146105ff576101c2565b806391a3c2fa116100d157806391a3c2fa146104ae57806395d89b41146104d9578063977b055b14610504578063a457c2d71461052f576101c2565b806378e979251461042d5780638da5cb5b14610458578063906a26e014610483576101c2565b806333b5b62e1161016457806343d726d61161013e57806343d726d6146103975780634e71d92d146103ae578063626be567146103c557806370a08231146103f0576101c2565b806333b5b62e1461031857806339509351146103435780633ccfd60b14610380576101c2565b806318160ddd116101a057806318160ddd1461025a57806323b872dd14610285578063313ce567146102c25780633197cbb6146102ed576101c2565b806306fdde03146101c7578063095ea7b3146101f25780630fdb1c101461022f575b600080fd5b3480156101d357600080fd5b506101dc6106d9565b6040516101e99190611847565b60405180910390f35b3480156101fe57600080fd5b5061021960048036038101906102149190611902565b61076b565b604051610226919061195d565b60405180910390f35b34801561023b57600080fd5b5061024461078e565b604051610251919061195d565b60405180910390f35b34801561026657600080fd5b5061026f6107a1565b60405161027c9190611987565b60405180910390f35b34801561029157600080fd5b506102ac60048036038101906102a791906119a2565b6107ab565b6040516102b9919061195d565b60405180910390f35b3480156102ce57600080fd5b506102d76107da565b6040516102e49190611a11565b60405180910390f35b3480156102f957600080fd5b506103026107e3565b60405161030f9190611987565b60405180910390f35b34801561032457600080fd5b5061032d6107e9565b60405161033a9190611987565b60405180910390f35b34801561034f57600080fd5b5061036a60048036038101906103659190611902565b6107ef565b604051610377919061195d565b60405180910390f35b34801561038c57600080fd5b50610395610826565b005b3480156103a357600080fd5b506103ac610a46565b005b3480156103ba57600080fd5b506103c3610bcb565b005b3480156103d157600080fd5b506103da610d2d565b6040516103e79190611987565b60405180910390f35b3480156103fc57600080fd5b5061041760048036038101906104129190611a2c565b610d33565b6040516104249190611987565b60405180910390f35b34801561043957600080fd5b50610442610d7b565b60405161044f9190611987565b60405180910390f35b34801561046457600080fd5b5061046d610d81565b60405161047a9190611a68565b60405180910390f35b34801561048f57600080fd5b50610498610da7565b6040516104a59190611987565b60405180910390f35b3480156104ba57600080fd5b506104c3610dad565b6040516104d09190611987565b60405180910390f35b3480156104e557600080fd5b506104ee610db3565b6040516104fb9190611847565b60405180910390f35b34801561051057600080fd5b50610519610e45565b6040516105269190611987565b60405180910390f35b34801561053b57600080fd5b5061055660048036038101906105519190611902565b610e4b565b604051610563919061195d565b60405180910390f35b34801561057857600080fd5b50610593600480360381019061058e9190611902565b610ec2565b6040516105a0919061195d565b60405180910390f35b3480156105b557600080fd5b506105be610ee5565b6040516105cb9190611987565b60405180910390f35b3480156105e057600080fd5b506105e9610eef565b6040516105f6919061195d565b60405180910390f35b610607610f02565b005b34801561061557600080fd5b50610630600480360381019061062b9190611a83565b611226565b60405161063d9190611987565b60405180910390f35b34801561065257600080fd5b5061065b6112ad565b6040516106689190611987565b60405180910390f35b34801561067d57600080fd5b506106866112b3565b6040516106939190611987565b60405180910390f35b3480156106a857600080fd5b506106c360048036038101906106be9190611a2c565b6112b9565b6040516106d09190611987565b60405180910390f35b6060600380546106e890611af2565b80601f016020809104026020016040519081016040528092919081815260200182805461071490611af2565b80156107615780601f1061073657610100808354040283529160200191610761565b820191906000526020600020905b81548152906001019060200180831161074457829003601f168201915b5050505050905090565b6000806107766112d1565b90506107838185856112d9565b600191505092915050565b600f60009054906101000a900460ff1681565b6000600254905090565b6000806107b66112d1565b90506107c38582856114a2565b6107ce85858561152e565b60019150509392505050565b60006012905090565b60095481565b600c5481565b6000806107fa6112d1565b905061081b81858561080c8589611226565b6108169190611b52565b6112d9565b600191505092915050565b600f60019054906101000a900460ff168061088d57506009544211801561088c57506000601160003373ffffffffffffffffffffffffffffffffffffffff1673ffffffffffffffffffffffffffffffffffffffff16815260200190815260200160002054115b5b6108cc576040517f08c379a00000000000000000000000000000000000000000000000000000000081526004016108c390611bf8565b60405180910390fd5b600f60009054906101000a900460ff1661091b576040517f08c379a000000000000000000000000000000000000000000000000000000000815260040161091290611c8a565b60405180910390fd5b6000601160003373ffffffffffffffffffffffffffffffffffffffff1673ffffffffffffffffffffffffffffffffffffffff1681526020019081526020016000205490506000601160003373ffffffffffffffffffffffffffffffffffffffff1673ffffffffffffffffffffffffffffffffffffffff168152602001908152602001600020819055506000811115610a43573373ffffffffffffffffffffffffffffffffffffffff166108fc829081150290604051600060405180830381858888f193505050501580156109f3573d6000803e3d6000fd5b503373ffffffffffffffffffffffffffffffffffffffff167f884edad9ce6fa2440d8a54cc123490eb96d2768479d49ff9c7366125a942436482604051610a3a9190611987565b60405180910390a25b50565b600660009054906101000a900473ffffffffffffffffffffffffffffffffffffffff1673ffffffffffffffffffffffffffffffffffffffff163373ffffffffffffffffffffffffffffffffffffffff1614610ad6576040517f08c379a0000000000000000000000000000000000000000000000000000000008152600401610acd90611d1c565b60405180910390fd5b6009544211610b1a576040517f08c379a0000000000000000000000000000000000000000000000000000000008152600401610b1190611d88565b60405180910390fd5b6001600f60016101000a81548160ff021916908315150217905550600a54471015610b5f576001600f60006101000a81548160ff021916908315150217905550610bc9565b600660009054906101000a900473ffffffffffffffffffffffffffffffffffffffff1673ffffffffffffffffffffffffffffffffffffffff166108fc479081150290604051600060405180830381858888f19350505050158015610bc7573d6000803e3d6000fd5b505b565b6009544211610c0f576040517f08c379a0000000000000000000000000000000000000000000000000000000008152600401610c0690611df4565b60405180910390fd5b6000600e54601160003373ffffffffffffffffffffffffffffffffffffffff1673ffffffffffffffffffffffffffffffffffffffff16815260200190815260200160002054610c5e9190611e14565b90506000601160003373ffffffffffffffffffffffffffffffffffffffff1673ffffffffffffffffffffffffffffffffffffffff168152602001908152602001600020819055506000811115610d2a57610cdb600660009054906101000a900473ffffffffffffffffffffffffffffffffffffffff16338361152e565b3373ffffffffffffffffffffffffffffffffffffffff167f47cee97cb7acd717b3c0aa1435d004cd5b3c8c57d70dbceb4e4458bbd60e39d482604051610d219190611987565b60405180910390a25b50565b60075481565b60008060008373ffffffffffffffffffffffffffffffffffffffff1673ffffffffffffffffffffffffffffffffffffffff168152602001908152602001600020549050919050565b60085481565b600660009054906101000a900473ffffffffffffffffffffffffffffffffffffffff1681565b600a5481565b600e5481565b606060048054610dc290611af2565b80601f0160208091040260200160405190810160405280929190818152602001828054610dee90611af2565b8015610e3b5780601f10610e1057610100808354040283529160200191610e3b565b820191906000526020600020905b815481529060010190602001808311610e1e57829003601f168201915b5050505050905090565b600d5481565b600080610e566112d1565b90506000610e648286611226565b905083811015610ea9576040517f08c379a0000000000000000000000000000000000000000000000000000000008152600401610ea090611ec8565b60405180910390fd5b610eb682868684036112d9565b60019250505092915050565b600080610ecd6112d1565b9050610eda81858561152e565b600191505092915050565b6000601054905090565b600f60019054906101000a900460ff1681565b600260055403610f47576040517f08c379a0000000000000000000000000000000000000000000000000000000008152600401610f3e90611f34565b60405180910390fd5b6002600581905550600854421015610f94576040517f08c379a0000000000000000000000000000000000000000000000000000000008152600401610f8b90611fa0565b60405180910390fd5b600954421115610fd9576040517f08c379a0000000000000000000000000000000000000000000000000000000008152600401610fd09061200c565b60405180910390fd5b600f60019054906101000a900460ff1615611029576040517f08c379a000000000000000000000000000000000000000000000000000000000815260040161102090612078565b60405180910390fd5b343373ffffffffffffffffffffffffffffffffffffffff16311015611083576040517f08c379a000000000000000000000000000000000000000000000000000000000815260040161107a9061210a565b60405180910390fd5b600c543410156110c8576040517f08c379a00000000000000000000000000000000000000000000000000000000081526004016110bf90612176565b60405180910390fd5b600d5434111561110d576040517f08c379a0000000000000000000000000000000000000000000000000000000008152600401611104906121e2565b60405180910390fd5b34601054600b5461111e9190612202565b101561115f576040517f08c379a000000000000000000000000000000000000000000000000000000000815260040161115690612282565b60405180910390fd5b34601060008282546111719190611b52565b9250508190555034601160003373ffffffffffffffffffffffffffffffffffffffff1673ffffffffffffffffffffffffffffffffffffffff16815260200190815260200160002060008282546111c79190611b52565b925050819055503373ffffffffffffffffffffffffffffffffffffffff167fe1fffcc4923d04b559f4d29a8bfc6cda04eb5b0d3c460751c2402c5c5cc9109c346040516112149190611987565b60405180910390a26001600581905550565b6000600160008473ffffffffffffffffffffffffffffffffffffffff1673ffffffffffffffffffffffffffffffffffffffff16815260200190815260200160002060008373ffffffffffffffffffffffffffffffffffffffff1673ffffffffffffffffffffffffffffffffffffffff16815260200190815260200160002054905092915050565b60105481565b600b5481565b60116020528060005260406000206000915090505481565b600033905090565b600073ffffffffffffffffffffffffffffffffffffffff168373ffffffffffffffffffffffffffffffffffffffff1603611348576040517f08c379a000000000000000000000000000000000000000000000000000000000815260040161133f90612314565b60405180910390fd5b600073ffffffffffffffffffffffffffffffffffffffff168273ffffffffffffffffffffffffffffffffffffffff16036113b7576040517f08c379a00000000000000000000000000000000000000000000000000000000081526004016113ae906123a6565b60405180910390fd5b80600160008573ffffffffffffffffffffffffffffffffffffffff1673ffffffffffffffffffffffffffffffffffffffff16815260200190815260200160002060008473ffffffffffffffffffffffffffffffffffffffff1673ffffffffffffffffffffffffffffffffffffffff168152602001908152602001600020819055508173ffffffffffffffffffffffffffffffffffffffff168373ffffffffffffffffffffffffffffffffffffffff167f8c5be1e5ebec7d5bd14f71427d1e84f3dd0314c0f7b2291e5b200ac8c7c3b925836040516114959190611987565b60405180910390a3505050565b60006114ae8484611226565b90507fffffffffffffffffffffffffffffffffffffffffffffffffffffffffffffffff8114611528578181101561151a576040517f08c379a000000000000000000000000000000000000000000000000000000000815260040161151190612412565b60405180910390fd5b61152784848484036112d9565b5b50505050565b600073ffffffffffffffffffffffffffffffffffffffff168373ffffffffffffffffffffffffffffffffffffffff160361159d576040517f08c379a0000000000000000000000000000000000000000000000000000000008152600401611594906124a4565b60405180910390fd5b600073ffffffffffffffffffffffffffffffffffffffff168273ffffffffffffffffffffffffffffffffffffffff160361160c576040517f08c379a000000000000000000000000000000000000000000000000000000000815260040161160390612536565b60405180910390fd5b6116178383836117ad565b60008060008573ffffffffffffffffffffffffffffffffffffffff1673ffffffffffffffffffffffffffffffffffffffff1681526020019081526020016000205490508181101561169d576040517f08c379a0000000000000000000000000000000000000000000000000000000008152600401611694906125c8565b60405180910390fd5b8181036000808673ffffffffffffffffffffffffffffffffffffffff1673ffffffffffffffffffffffffffffffffffffffff16815260200190815260200160002081905550816000808573ffffffffffffffffffffffffffffffffffffffff1673ffffffffffffffffffffffffffffffffffffffff16815260200190815260200160002060008282546117309190611b52565b925050819055508273ffffffffffffffffffffffffffffffffffffffff168473ffffffffffffffffffffffffffffffffffffffff167fddf252ad1be2c89b69c2b068fc378daa952ba7f163c4a11628f55a4df523b3ef846040516117949190611987565b60405180910390a36117a78484846117b2565b50505050565b505050565b505050565b600081519050919050565b600082825260208201905092915050565b60005b838110156117f15780820151818401526020810190506117d6565b60008484015250505050565b6000601f19601f8301169050919050565b6000611819826117b7565b61182381856117c2565b93506118338185602086016117d3565b61183c816117fd565b840191505092915050565b60006020820190508181036000830152611861818461180e565b905092915050565b600080fd5b600073ffffffffffffffffffffffffffffffffffffffff82169050919050565b60006118998261186e565b9050919050565b6118a98161188e565b81146118b457600080fd5b50565b6000813590506118c6816118a0565b92915050565b6000819050919050565b6118df816118cc565b81146118ea57600080fd5b50565b6000813590506118fc816118d6565b92915050565b6000806040838503121561191957611918611869565b5b6000611927858286016118b7565b9250506020611938858286016118ed565b9150509250929050565b60008115159050919050565b61195781611942565b82525050565b6000602082019050611972600083018461194e565b92915050565b611981816118cc565b82525050565b600060208201905061199c6000830184611978565b92915050565b6000806000606084860312156119bb576119ba611869565b5b60006119c9868287016118b7565b93505060206119da868287016118b7565b92505060406119eb868287016118ed565b9150509250925092565b600060ff82169050919050565b611a0b816119f5565b82525050565b6000602082019050611a266000830184611a02565b92915050565b600060208284031215611a4257611a41611869565b5b6000611a50848285016118b7565b91505092915050565b611a628161188e565b82525050565b6000602082019050611a7d6000830184611a59565b92915050565b60008060408385031215611a9a57611a99611869565b5b6000611aa8858286016118b7565b9250506020611ab9858286016118b7565b9150509250929050565b7f4e487b7100000000000000000000000000000000000000000000000000000000600052602260045260246000fd5b60006002820490506001821680611b0a57607f821691505b602082108103611b1d57611b1c611ac3565b5b50919050565b7f4e487b7100000000000000000000000000000000000000000000000000000000600052601160045260246000fd5b6000611b5d826118cc565b9150611b68836118cc565b9250828201905080821115611b8057611b7f611b23565b5b92915050565b7f5769746864726177616c73206e6f7420616c6c6f77656420617420746869732060008201527f74696d652e000000000000000000000000000000000000000000000000000000602082015250565b6000611be26025836117c2565b9150611bed82611b86565b604082019050919050565b60006020820190508181036000830152611c1181611bd5565b9050919050565b7f43616e6e6f742077697468647261772062656361757365206f662049434f207360008201527f7563636573732e00000000000000000000000000000000000000000000000000602082015250565b6000611c746027836117c2565b9150611c7f82611c18565b604082019050919050565b60006020820190508181036000830152611ca381611c67565b9050919050565b7f4f6e6c7920636f6e7472616374206f776e65722063616e2063616c6c2074686960008201527f732066756e6374696f6e2e000000000000000000000000000000000000000000602082015250565b6000611d06602b836117c2565b9150611d1182611caa565b604082019050919050565b60006020820190508181036000830152611d3581611cf9565b9050919050565b7f49434f20686173206e6f742079657420656e6465642e00000000000000000000600082015250565b6000611d726016836117c2565b9150611d7d82611d3c565b602082019050919050565b60006020820190508181036000830152611da181611d65565b9050919050565b7f436c61696d73206e6f7420616c6c6f77656420617420746869732074696d652e600082015250565b6000611dde6020836117c2565b9150611de982611da8565b602082019050919050565b60006020820190508181036000830152611e0d81611dd1565b9050919050565b6000611e1f826118cc565b9150611e2a836118cc565b9250828202611e38816118cc565b91508282048414831517611e4f57611e4e611b23565b5b5092915050565b7f45524332303a2064656372656173656420616c6c6f77616e63652062656c6f7760008201527f207a65726f000000000000000000000000000000000000000000000000000000602082015250565b6000611eb26025836117c2565b9150611ebd82611e56565b604082019050919050565b60006020820190508181036000830152611ee181611ea5565b9050919050565b7f5265656e7472616e637947756172643a207265656e7472616e742063616c6c00600082015250565b6000611f1e601f836117c2565b9150611f2982611ee8565b602082019050919050565b60006020820190508181036000830152611f4d81611f11565b9050919050565b7f49434f20686173206e6f742079657420737461727465642e0000000000000000600082015250565b6000611f8a6018836117c2565b9150611f9582611f54565b602082019050919050565b60006020820190508181036000830152611fb981611f7d565b9050919050565b7f49434f2068617320656e6465642e000000000000000000000000000000000000600082015250565b6000611ff6600e836117c2565b915061200182611fc0565b602082019050919050565b6000602082019050818103600083015261202581611fe9565b9050919050565b7f49434f20697320636c6f7365642e000000000000000000000000000000000000600082015250565b6000612062600e836117c2565b915061206d8261202c565b602082019050919050565b6000602082019050818103600083015261209181612055565b9050919050565b7f4465706f73697420616d6f756e742069732062656c6f7720796f75722062616c60008201527f616e63652e000000000000000000000000000000000000000000000000000000602082015250565b60006120f46025836117c2565b91506120ff82612098565b604082019050919050565b60006020820190508181036000830152612123816120e7565b9050919050565b7f4465706f73697420616d6f756e742069732062656c6f77206d696e696d756d2e600082015250565b60006121606020836117c2565b915061216b8261212a565b602082019050919050565b6000602082019050818103600083015261218f81612153565b9050919050565b7f4465706f73697420616d6f756e742069732061626f7665206d6178696d756d2e600082015250565b60006121cc6020836117c2565b91506121d782612196565b602082019050919050565b600060208201905081810360008301526121fb816121bf565b9050919050565b600061220d826118cc565b9150612218836118cc565b92508282039050818111156122305761222f611b23565b5b92915050565b7f4465706f73697420616d6f756e7420657863656564732068617264206361702e600082015250565b600061226c6020836117c2565b915061227782612236565b602082019050919050565b6000602082019050818103600083015261229b8161225f565b9050919050565b7f45524332303a20617070726f76652066726f6d20746865207a65726f2061646460008201527f7265737300000000000000000000000000000000000000000000000000000000602082015250565b60006122fe6024836117c2565b9150612309826122a2565b604082019050919050565b6000602082019050818103600083015261232d816122f1565b9050919050565b7f45524332303a20617070726f766520746f20746865207a65726f20616464726560008201527f7373000000000000000000000000000000000000000000000000000000000000602082015250565b60006123906022836117c2565b915061239b82612334565b604082019050919050565b600060208201905081810360008301526123bf81612383565b9050919050565b7f45524332303a20696e73756666696369656e7420616c6c6f77616e6365000000600082015250565b60006123fc601d836117c2565b9150612407826123c6565b602082019050919050565b6000602082019050818103600083015261242b816123ef565b9050919050565b7f45524332303a207472616e736665722066726f6d20746865207a65726f20616460008201527f6472657373000000000000000000000000000000000000000000000000000000602082015250565b600061248e6025836117c2565b915061249982612432565b604082019050919050565b600060208201905081810360008301526124bd81612481565b9050919050565b7f45524332303a207472616e7366657220746f20746865207a65726f206164647260008201527f6573730000000000000000000000000000000000000000000000000000000000602082015250565b60006125206023836117c2565b915061252b826124c4565b604082019050919050565b6000602082019050818103600083015261254f81612513565b9050919050565b7f45524332303a207472616e7366657220616d6f756e742065786365656473206260008201527f616c616e63650000000000000000000000000000000000000000000000000000602082015250565b60006125b26026836117c2565b91506125bd82612556565b604082019050919050565b600060208201905081810360008301526125e1816125a5565b905091905056fea2646970667358221220ec230051e9ae5e372f17dae7bac8ca3ee50223222066049b0612303e398c1c0a64736f6c63430008110033",
  "linkReferences": {},
  "deployedLinkReferences": {}
}